:10000000984C0220AD600000A780030081600000D2
:10001000816000008160000081600000816000005C
:10002000000000000000000000000000AD610000C2
:10003000816000000000000041610000816000005C
:100040006563000065630000656300006563000090
:100050006563000065630000656300006563000080
:100060006563000065630000656300006563000070
:100070006563000065630000656300006563000060
:100080006563000065630000656300006563000050
:100090006563000065630000656300006563000040
:1000A0006563000065630000656300006563000030
:1000B0006563000065630000656300006563000020
:1000C0006563000065630000656300006563000010
:1000D0006563000065630000656300006563000000
:1000E00065630000656300006563000065630000F0
:1000F00065630000656300006563000065630000E0
:1001000065630000656300006563000065630000CF
:1001100065630000656300006563000065630000BF
:1001200065630000656300006563000065630000AF
:10013000656300006563000065630000656300009F
:10014000656300006563000065630000656300008F
:0401500065630000E3
:04015400FFFFFFFFAB
:1001580081F0004102E000BF83F0004330B54FEA70
:1001680041044FEA430594EA050F08BF90EA020FDD
:100178001FBF54EA000C55EA020C7FEA645C7FEA70
:10018800655C00F0E2804FEA5454D4EB5555B8BF93
:100198006D420CDD2C4480EA020281EA030382EA04
:1001A800000083EA010180EA020281EA0303362D96
:1001B80088BF30BD11F0004F4FEA01314FF4801C69
:1001C8004CEA113102D0404261EB410113F0004F7B
:1001D8004FEA03334CEA133302D0524263EB430332
:1001E80094EA050F00F0A780A4F10104D5F1200ED0
:1001F8000DDB02FA0EFC22FA05F2801841F100012B
:1002080003FA0EF2801843FA05F359410EE0A5F1FE
:1002180020050EF1200E012A03FA0EFC28BF4CF02F
:10022800020C43FA05F3C01851EBE37101F00045E5
:1002380007D54FF0000EDCF1000C7EEB00006EEBF2
:100248000101B1F5801F1BD3B1F5001F0CD349087C
:100258005FEA30004FEA3C0C04F101044FEA4452D3
:1002680012F5800F80F09A80BCF1004F08BF5FEA5A
:10027800500C50F1000041EB045141EA050130BD3A
:100288005FEA4C0C404141EB0101013C28BFB1F54C
:10029800801FE9D291F0000F04BF01460020B1FA97
:1002A80081F308BF2033A3F10B03B3F120020CDA6A
:1002B8000C3208DD02F1140CC2F10C0201FA0CF048
:1002C80021FA02F10CE002F11402D8BFC2F1200CAD
:1002D80001FA02F120FA0CFCDCBF41EA0C01904063
:1002E800E41AA2BF01EB0451294330BD6FEA0404AC
:1002F8001F3C1CDA0C340EDC04F11404C4F1200297
:1003080020FA04F001FA02F340EA030021FA04F3A8
:1003180045EA030130BDC4F10C04C4F1200220FAFF
:1003280002F001FA04F340EA0300294630BD21FA3D
:1003380004F0294630BD94F0000F83F4801306BF03
:1003480081F480110134013D4EE77FEA645C18BFF7
:100358007FEA655C29D094EA050F08BF90EA020F8E
:1003680005D054EA000C04BF1946104630BD91EA86
:10037800030F1EBF0021002030BD5FEA545C05D189
:100388004000494128BF41F0004130BD14F58004C8
:100398003CBF01F5801130BD01F0004545F0FE413C
:1003A80041F470014FF0000030BD7FEA645C1ABF71
:1003B800194610467FEA655C1CBF0B46024650EAA8
:1003C800013406BF52EA033591EA030F41F40021D4
:1003D80030BD00BF90F0000F04BF0021704730B55A
:1003E8004FF4806404F132044FF000054FF000012F
:1003F80050E700BF90F0000F04BF0021704730B5F0
:100408004FF4806404F1320410F0004548BF4042C4
:100418004FF000013EE700BF42004FEAE2014FEA19
:1004280031014FEA02701FBF12F07F4393F07F4FF4
:1004380081F06051704732F07F4208BF704793F0F7
:100448007F4F04BF41F40021704730B54FF460740A
:1004580001F0004521F000411CE700BF50EA01020D
:1004680008BF704730B54FF000050AE050EA0102B6
:1004780008BF704730B511F0004502D5404261EB26
:1004880041014FF4806404F132045FEA915C3FF467
:10049800D8AE4FF003025FEADC0C18BF03325FEA04
:1004A800DC0C18BF033202EBDC02C2F1200300FAB5
:1004B80003FC20FA02F001FA03FE40EA0E0021FADA
:1004C80002F11444BDE600BF70B54FF0FF0C4CF4C8
:1004D800E06C1CEA11541DBF1CEA135594EA0C0F7A
:1004E80095EA0C0F00F0DEF82C4481EA030621EAB5
:1004F8004C5123EA4C5350EA013518BF52EA0335F0
:1005080041F4801143F4801338D0A0FB02CE4FF0A1
:100518000005E1FB02E506F00042E0FB03E54FF0D1
:100528000006E1FB03569CF0000F18BF4EF0010EC9
:10053800A4F1FF04B6F5007F64F5407404D25FEAC5
:100548004E0E6D4146EB060642EAC62141EA555178
:100558004FEAC52040EA5E504FEACE2EB4F1FD0CBA
:1005680088BFBCF5E06F1ED8BEF1004F08BF5FEA38
:10057800500E50F1000041EB045170BD06F00046EA
:1005880046EA010140EA020081EA0301B4EB5C0497
:10059800C2BFD4EB0C0541EA045170BD41F480118F
:1005A8004FF0000E013C00F3AB8014F1360FDEBFB4
:1005B800002001F0004170BDC4F10004203C35DA90
:1005C8000C341BDC04F11404C4F1200500FA05F313
:1005D80020FA04F001FA05F240EA020001F00042B4
:1005E80021F0004110EBD37021FA04F642EB06012A
:1005F8005EEA430E08BF20EAD37070BDC4F10C0454
:10060800C4F1200500FA04F320FA05F001FA04F217
:1006180040EA020001F0004110EBD37041F1000103
:100628005EEA430E08BF20EAD37070BDC4F120050E
:1006380000FA05F24EEA020E20FA04F301FA05F276
:1006480043EA020321FA04F001F0004121FA04F21E
:1006580020EA020000EBD3705EEA430E08BF20EAEE
:10066800D37070BD94F0000F0FD101F00046400028
:1006780041EB010111F4801F08BF013CF7D041EAAA
:10068800060195F0000F18BF704703F000465200AE
:1006980043EB030313F4801F08BF013DF7D043EA7F
:1006A8000603704794EA0C0F0CEA135518BF95EA35
:1006B8000C0F0CD050EA410618BF52EA4306D1D1BC
:1006C80081EA030101F000414FF0000070BD50EADB
:1006D800410606BF1046194652EA430619D094EA65
:1006E8000C0F02D150EA013613D195EA0C0F05D14F
:1006F80052EA03361CBF104619460AD181EA0301A3
:1007080001F0004141F0FE4141F470014FF000005A
:1007180070BD41F0FE4141F4780170BD70B54FF0F5
:10072800FF0C4CF4E06C1CEA11541DBF1CEA135575
:1007380094EA0C0F95EA0C0F00F0A7F8A4EB050457
:1007480081EA030E52EA03354FEA013100F088804E
:100758004FEA03334FF0805545EA131343EA126317
:100768004FEA022245EA111545EA10654FEA0026CC
:100778000EF000419D4208BF964244F1FD0404F585
:10078800407402D25B084FEA3202B61A65EB0305E1
:100798005B084FEA32024FF480104FF4002CB6EB9E
:1007A800020E75EB030E22BFB61A754640EA0C001E
:1007B8005B084FEA3202B6EB020E75EB030E22BF5E
:1007C800B61A754640EA5C005B084FEA3202B6EB9F
:1007D800020E75EB030E22BFB61A754640EA9C005E
:1007E8005B084FEA3202B6EB020E75EB030E22BF2E
:1007F800B61A754640EADC0055EA060E18D04FEAEC
:10080800051545EA16754FEA06164FEAC30343EA8B
:1008180052734FEAC2025FEA1C1CC0D111F4801F58
:100828000BD141EA00014FF000004FF0004CB6E751
:1008380011F4801F04BF01430020B4F1FD0C88BFF0
:10084800BCF5E06F3FF6AFAEB5EB030C04BFB6EBFB
:10085800020C5FEA500C50F1000041EB045170BDEE
:100868000EF0004E4EEA113114EB5C04C2BFD4EB1B
:100878000C0541EA045170BD41F480114FF0000E9F
:10088800013C90E645EA060E8DE60CEA135594EA1B
:100898000C0F08BF95EA0C0F3FF43BAF94EA0C0F1E
:1008A8000AD150EA01347FF434AF95EA0C0F7FF493
:1008B80025AF104619462CE795EA0C0F06D152EAE7
:1008C80003353FF4FDAE1046194622E750EA4106CB
:1008D80018BF52EA43067FF4C5AE50EA41047FF4DC
:1008E8000DAF52EA43057FF4EBAE12E74FEA41023F
:1008F80012F5001215D211D56FF47873B3EB62526A
:1009080012D94FEAC12343F0004343EA505311F090
:10091800004F23FA02F018BF404270474FF0000022
:10092800704750EA013005D111F0004008BF6FF060
:10093800004070474FF00000704700BF4FEA410287
:10094800B2F1E04324BFB3F5001CDCF1FE5C0DD925
:1009580001F0004C4FEAC0024CEA5070B2F1004F6F
:1009680040EB830008BF20F00100704711F0804F72
:1009780021D113F13872BCBF01F00040704741F437
:1009880080114FEA5252C2F11802C2F1200C10FA3B
:100998000CF320FA02F018BF40F001004FEAC1231F
:1009A8004FEAD32303FA0CFC40EA0C0023FA02F3C3
:1009B8004FEA4303CCE77FEA625307D150EA013399
:1009C8001EBF4FF0FE4040F44000704701F0004069
:1009D80040F0FE4040F40000704700BF80F0004047
:1009E80002E000BF81F0004142001FBF5FEA4103FF
:1009F80092EA030F7FEA226C7FEA236C6AD04FEAFF
:100A08001262D2EB1363C1BFD21841404840414043
:100A1800B8BF5B42192B88BF704710F0004F40F4F5
:100A2800000020F07F4018BF404211F0004F41F411
:100A3800000121F07F4118BF494292EA030F3FD0DD
:100A4800A2F1010241FA03FC10EB0C00C3F12003F0
:100A580001FA03F100F0004302D5494260EB40007F
:100A6800B0F5000F13D3B0F1807F06D340084FEAEA
:100A7800310102F10102FE2A51D2B1F1004F40EBDF
:100A8800C25008BF20F0010040EA03007047490047
:100A980040EB0000013A28BFB0F5000FEDD2B0FAE4
:100AA80080FCACF1080CB2EB0C0200FA0CF0AABF07
:100AB80000EBC25052421843BCBFD04018437047A5
:100AC80092F0000F81F4000106BF80F400000132AB
:100AD800013BB5E74FEA41037FEA226C18BF7FEA82
:100AE800236C21D092EA030F04D092F0000F08BFC4
:100AF8000846704790EA010F1CBF0020704712F0AB
:100B08007F4F04D1400028BF40F00040704712F1E9
:100B180000723CBF00F50000704700F0004343F04E
:100B2800FE4040F4000070477FEA226216BF084684
:100B38007FEA23630146420206BF5FEA412390EA47
:100B4800010F40F4800070474FF0000304E000BF3D
:100B580010F0004348BF40425FEA000C08BF7047EE
:100B680043F0964301464FF000001CE050EA0102B2
:100B780008BF70474FF000030AE000BF50EA0102C7
:100B880008BF704711F0004302D5404261EB4101B4
:100B98005FEA010C02BF84460146002043F0B643D9
:100BA80008BFA3F18053A3F50003BCFA8CF2083AFE
:100BB800A3EBC25310DB01FA02FC634400FA02FC07
:100BC800C2F12002BCF1004F20FA02F243EB02000E
:100BD80008BF20F00100704702F1200201FA02FC70
:100BE800C2F1200250EA4C0021FA02F243EB020063
:100BF80008BF20EADC7070474FF0FF0C1CEAD052A7
:100C08001EBF1CEAD15392EA0C0F93EA0C0F6FD067
:100C18001A4480EA010C400218BF5FEA41211ED045
:100C28004FF0006343EA501043EA5111A0FB013131
:100C38000CF00040B1F5000F3EBF490041EAD37106
:100C48005B0040EA010062F17F02FD2A1DD8B3F182
:100C5800004F40EBC25008BF20F00100704790F0F1
:100C6800000F0CF0004C08BF49024CEA502040EA43
:100C780051207F3AC2BFD2F1FF0340EAC250704709
:100C880040F400004FF00003013A5DDC12F1190F47
:100C9800DCBF00F000407047C2F10002410021FAB9
:100CA80002F1C2F1200200FA02FC5FEA310040F1D1
:100CB800000053EA4C0308BF20EADC70704792F04A
:100CC800000F00F0004C02BF400010F4000F013A82
:100CD800F9D040EA0C0093F0000F01F0004C02BF7D
:100CE800490011F4000F013BF9D041EA0C018FE7EC
:100CF8000CEAD15392EA0C0F18BF93EA0C0F0AD0F2
:100D080030F0004C18BF31F0004CD8D180EA010017
:100D180000F00040704790F0000F17BF90F0004FB0
:100D2800084691F0000F91F0004F14D092EA0C0F92
:100D380001D142020FD193EA0C0F03D14B0218BF25
:100D4800084608D180EA010000F0004040F0FE406B
:100D580040F40000704740F0FE4040F44000704707
:100D68004FF0FF0C1CEAD0521EBF1CEAD15392EA86
:100D78000C0F93EA0C0F69D0A2EB030280EA010C76
:100D880049024FEA402037D04FF0805343EA11110F
:100D980043EA10130CF000408B4238BF5B0042F16D
:100DA8007D024FF4000C8B4224BF5B1A40EA0C0012
:100DB800B3EB510F24BFA3EB510340EA5C00B3EB44
:100DC800910F24BFA3EB910340EA9C00B3EBD10F32
:100DD80024BFA3EBD10340EADC001B0118BF5FEA84
:100DE8001C1CE0D1FD2A3FF650AF8B4240EBC250AD
:100DF80008BF20F0010070470CF0004C4CEA50206E
:100E08007F32C2BFD2F1FF0340EAC250704740F4BC
:100E180000004FF00003013A37E792F0000F00F0AE
:100E2800004C02BF400010F4000F013AF9D040EA2C
:100E38000C0093F0000F01F0004C02BF490011F4C0
:100E4800000F013BF9D041EA0C0195E70CEAD153B8
:100E580092EA0C0F08D142027FF47DAF93EA0C0F9F
:100E68007FF470AF084676E793EA0C0F04D14B0283
:100E78003FF44CAF08466EE730F0004C18BF31F035
:100E8800004CCAD130F000427FF45CAF31F000432F
:100E98007FF43CAF5FE700BF4FF0FF3C06E000BFC8
:100EA8004FF0010C02E000BF4FF0010C4DF804CDEB
:100EB8004FEA40024FEA41037FEA226C18BF7FEAFB
:100EC800236C11D001B052EA530C18BF90EA010FFD
:100ED80058BFB2EB030088BFC81738BF6FEAE1708C
:100EE80018BF40F0010070477FEA226C02D15FEA28
:100EF800402C05D17FEA236CE4D15FEA412CE1D094
:100F08005DF8040B704700BF844608466146FFE75A
:100F18000FB5FFF7C9FF002848BF10F1000F0FBD3C
:100F28004DF808EDFFF7F4FF0CBF012000205DF835
:100F380008FB00BF4DF808EDFFF7EAFF34BF0120BA
:100F480000205DF808FB00BF4DF808EDFFF7E0FF53
:100F580094BF012000205DF808FB00BF4DF808EDA4
:100F6800FFF7D2FF94BF012000205DF808FB00BF07
:100F78004DF808EDFFF7C8FF34BF012000205DF8E9
:100F880008FB00BF4FEA4002B2F1FE4F0FD34FF00B
:100F98009E03B3EB12620DD94FEA002343F00043DE
:100FA80010F0004F23FA02F018BF404270474FF08C
:100FB8000000704712F1610F01D1420205D110F013
:100FC800004008BF6FF0004070474FF000007047C6
:100FD80053B94AB9002908BF00281CBF4FF0FF3198
:100FE8004FF0FF3000F00CB8ADF1080C6DE904CEFD
:100FF80000F01BF8DDF804E0DDE9022304B07047D7
:10100800704700BF430803F05533C01A00F033336C
:10101800800800F0333018444FF0013300EB101013
:1010280000F00F305843000E70472DE9F047864610
:101038008C460846089E154674461946002B40F013
:10104800C1808542B2FA82F245D94AB1C2F1200381
:1010580000FA02FC954094402EFA03F343EA0C0C84
:101068004FEA154EA8B2230CBCFBFEF80EFB18CCB9
:1010780008FB00F943EA0C43994528D9EB1808F115
:10108800FF3704D2994502D9A8F102072B44A3EBF4
:101098000903A4B2B3FBFEFC0EFB1C330CFB00F0EF
:1010A80044EA0344A04214D92C190CF1FF3304D2AA
:1010B800A04202D9ACF102032C44241A43EA0740A7
:1010C8001EB1D440002334607360BDE8F087474602
:1010D800DDE76346F1E792BB431B01214FEA154E5A
:1010E800AFB2200CB3FBFEFC0EFB1C330CFB07F865
:1010F80040EA0343984561D9EB180CF1FF3004D25C
:10110800984502D9ACF102002B44A3EB0803A4B222
:10111800B3FBFEFC0EFB1C330CFB07F744EA03444D
:10112800A7424DD92C190CF1FF3304D2A74202D99A
:10113800ACF102032C44E41B43EA0040C0E7C2F1CF
:1011480020039540944020FA03F12EFA03F34FEA66
:10115800154E9040AFB20343B1FBFEFC0EFB1C10D2
:10116800190C0CFB07F841EA0041884522D9691897
:101178000CF1FF3004D2884502D9ACF102002944B1
:10118800A1EB08019BB2B1FBFEFC0EFB1C110CFB92
:1011980007F743EA01439F420ED9EB180CF1FF31E0
:1011A80004D29F4202D9ACF102012B44DB1B41EA75
:1011B800004193E76046E3E76146F7E76046A4E746
:1011C8006346B8E7834206D916B9002108467CE78A
:1011D800C6E900E0F9E7B3FA83F78FB9834201D390
:1011E800724508D8BEEB020460EB030301209C465D
:1011F8001EB9002169E73846FAE7C6E9004CF8E766
:10120800C7F1200CBB400EFA07F522FA0CF42EFAAF
:101218000CF1BA401C4320FA0CF3B8404FEA1449C9
:1012280001431FFA84FEB3FBF9F809FB18300B0CD5
:1012380008FB0EFA43EA00439A4540D9E31808F13F
:10124800FF3004D29A4502D9A8F102002344A3EB47
:101258000A0389B2B3FBF9F809FB183308FB0EFE41
:1012680041EA03418E452CD9611808F1FF3304D2B5
:101278008E4502D9A8F10203214443EA0040A1EBBC
:101288000E01A0FB02984145CE46434602D306D143
:101298004D4504D20138B9EB020E68EB0403002E69
:1012A800A7D0B5EB0E0261EB030101FA0CFC22FAA0
:1012B80007F3F9404CEA0303C6E9003199E74046D1
:1012C800C5E74346D9E710F8012B11F8013B012A7D
:1012D80028BF9A42F7D0D01A7047034611F8012B5D
:1012E80003F8012B002AF9D17047034613F8012BA4
:1012F800002AFBD1181A01387047000000000000CE
:1013080070B586B04FF0FF324FF0FF33244832F00B
:10131800BFFC244D2448286048F01FF8002839D025
:10132800224C00F0DBFC204629F0D2FB022323707C
:101338001F4B2046636029F0DBFB28681D4E83683D
:101348005B6898472868002113A5D5E9004583689C
:101358005B699847184835F014F8012000F000FF41
:101368004FF0FF324FF0FF336946304632F024FB2E
:101378000098FFF73FF822462B46FFF7CFF9FFF713
:10138800DDFA00F06BFE2AF097FC0021842033F090
:101398009BF9E5E706B070BD0000000080842E418F
:1013A800980B002040D80020F4A4040044D8002062
:1013B800811C0000F00A002062EC0400000000001C
:1013C800F0B589B0674D00AFD5F86431996811F070
:1013D80001011AD140F603403A1D06F003FF044606
:1013E800002840F0BA807868C3681B785BB905F1BB
:1013F800D403D3E8AF2F02F00902D3E8EF1FC3E804
:10140800E42F002CF9D10DF0BBFE002141F20300BE
:101418003A1D06F0E7FE0446002840F09E807B68EF
:10142800514EDA68D2F80100D2F8051003C6184602
:101438000DF0A6FE214641F201003A1D06F0D2FE4B
:101448000446002840F089807868C3685A7885F88F
:1014580070205A88A5F872201A7985F87120B3F897
:101468000720A5F87420B3F80530A5F876300DF0FC
:1014780087FE214641F202003A1D06F0B3FE0446FB
:1014880000286AD1D7F804C0DCF80C20531C41327C
:10149800344618685968083303C493422646F7D17E
:1014A80060460DF06DFE08F03FFD0446002854D15B
:1014B80095F88A3099061CD42C4B4FF48451FB6163
:1014C80002232B48BB6107F1180237F0F3F895F8AF
:1014D8007C305A0650D4274B4FF48251FB610223CB
:1014E8002348BB6107F1180237F0E4F86FF01204E3
:1014F80033E0072140F6334006F03AFE064600285E
:1015080000F0478107210C3039F018F945230370A2
:101518000623C0F802408471447004712246C370E7
:10152800314640F6334006F05DFE0446A8B9012175
:1015380040F6314006F01CFE0646002800F02981DE
:1015480001210C3039F009F92246314640F6314084
:1015580006F048FE04460028B9D020462437BD4688
:10156800F0BD00BF9800002010010020C610050043
:1015780054A90400F4100500002142F2030007F109
:10158800080206F02FFE04460028E6D1BB68AC4EE0
:10159800DA68D2F80100D2F8051003C618460DF033
:1015A800EFFD214642F2020007F1080206F01AFE9A
:1015B80004460028D1D1BC68E368B3F8012091B291
:1015C80049B1D97839B1A5F80421DA78114606F17C
:1015D800280048F049F820460DF0D2FD95F87C60C7
:1015E80016F0200618D1022140F66D4006F0C0FD25
:1015F8000446002800F0CD8002210C3039F09EF816
:101608000123214603704670324640F66D4006F0CD
:10161800E9FD04460028A0D195F89C301B0713D596
:10162800002142F21C0007F1080206F0DBFD044627
:10163800002892D1B868C368D3F80120D3F80530E0
:10164800C5E938230DF09CFD95F8D8309E0622D5C3
:10165800391DB81C06F048FE044600287FF47DAF0B
:10166800042142F2240006F083FD0646002800F01B
:10167800908004210C3039F061F87B882246038081
:10168800BB883146438042F2240006F0ABFD044695
:1016980000287FF462AF95F8D8305C0611D5002198
:1016A80042F22A0007F1080206F09CFD04460028D1
:1016B8007FF453AFB868C3685B7885F820310DF0C4
:1016C8005FFD082142F2010006F052FD04460028A1
:1016D8005FD008210C3039F031F895F8D81040F275
:1016E800022311F0400F08BF0323024688074CBFAE
:1016F80043F02C0043F00C008B0695F8D93048BF16
:1017080040F0400013F0090F95F8A23018BF40F4DC
:10171800006003F00603CE0748BF40F01000062B18
:1017280008BF40F4C070002136F0CFFF21460022E8
:1017380042F2010006F056FD044600287FF40DAF82
:1017480095F87C30B5F80411980625D4D1B941F242
:10175800050007F1080206F045FD044600287FF45D
:10176800FCAEB5F80431BC684BB9E368B3F80120A6
:10177800A5F804219A883348114647F075FF20469A
:101788000DF0FEFC082140F6014006F0F1FC04468D
:1017980090B96FF06804E0E60029F3D12A4B4FF4C2
:1017A8008251FB6102232948BB6107F1180236F018
:1017B80081FF6FF00404D0E608210C3038F0BEFF3A
:1017C80095F8D8300246D9072FD44FF00051204859
:1017D80036F07BFF2146002240F6014006F002FD6C
:1017E800044600287FF4B9AE01463A1D4FF6014081
:1017F80006F0F8FC80B3174BFB6102234FF48451C9
:101808001248BB6107F1180236F054FF07F0F8FFE1
:10181800044600287FF4A1AE09F002FC0446002823
:101828007FF49BAE07F004FB97E603A1D1E9000122
:10183800CEE700BFAFF30080908800020080002050
:1018480070010020A00100201811050054A904000F
:10185800108800023B1105007B686D46DC688AB081
:10186800B4F80130032B96BF424A434952F823107B
:101878006A46D3614FF4007340481384404BC2E971
:10188800050142F8103F4FF413513E4836F012FF5D
:10189800B4F80120AD46022AB4F8033048D1032B2E
:1018A80046D8394A52F823106D468AB06A46D36141
:1018B8004FF4007335481384314BC2E9050142F8EF
:1018C800103F4FF413512F4836F0F4FEAD466379BC
:1018D800A679032B98BF2E4AB4F80750D4F809000C
:1018E8006C468CB094BF52F8231023496A46C2E96B
:1018F80007364FF40073DFF89CC09385264BC2E986
:1019080005C1C2E909504FF4735142F8103F1D4810
:1019180036F0D0FEA54678680DF032FC00214FF66F
:1019280002403A1D06F05EFC044618B11B4B63E703
:101938001149B9E778681A4DC368B3F80130A5F8BA
:10194800C1300DF01DFC95F8C1305B077FF55EAF27
:1019580021464FF603403A1D06F044FC08B1114BEE
:101968004AE77868C3685B7885F8C0300DF008FCF2
:101978004CE700BF24B304002BA208005F11050048
:101988000400000154A9040014B3040078110500F0
:1019980004B304009011050007000001BD11050003
:1019A80098000020E61105002DE9F04F43688DB03E
:1019B800D3E90A621D6B9B8E059102920493B3686A
:1019C80030465B68029906AA9847041E19DBDDE9D0
:1019D800064BA5FB042305FB0B3803924FF0FF3A97
:1019E80023A3D3E9002341460398FFF7F1FA039BA9
:1019F800DFF884909A4579EB080307460CD26FF01C
:101A080085041E4B4FF482510B9302231C480AAAEB
:101A18000A9339F014F824E06423B5FBF3F5059B29
:101A28006B43A3FB045403FB0B4411A3D3E900232A
:101A380021462846FFF7CCFAAA4579EB0404034669
:101A4800DDD38742B26802D26FF01504D9E7049952
:101A580030460091146802993A46A0470446002887
:101A6800CFD120460DB0BDE8F08F00BFAFF30080A6
:101A780000CA9A3B00000000FFC99A3B2D2B0500C5
:101A8800ACA90400000000002DE9F04F87B005461E
:101A980017461E460391836804AA5B689847002886
:101AA80031DBDDE9044AA7FB04B307FB0A371AA3B5
:101AB800D3E900234FF0FF3958463946FFF788FA33
:101AC800DFF85C80D94578EB070302901ED312A398
:101AD800D3E90023A6FB04B406FB0A445846214672
:101AE800FFF776FAD94578EB040403460ED302993A
:101AF800AA6899420DD3BDF8401028460091146891
:101B0800DDE90221A04707B0BDE8F08F6FF085003E
:101B1800F9E76FF01500F6E700CA9A3B00000000ED
:101B2800FFC99A3B0000000010B5C9B23B39144602
:101B3800036903291FD8DFE801F00211171BD868D1
:101B4800FEF758FC0EA3D3E90023FEF7BDFCFEF711
:101B5800CDFE002320606360002010BDD3F80C2266
:101B68002260D3F81032F6E7B3F814342360F3E7B1
:101B7800B3F81634FAE76FF01500EEE7AFF300801C
:101B880021F9FFFF83D74740F0B59FB017460E46AF
:101B9800FEF7DEFF1449FFF7E3F8FEF73DFC0446C5
:101BA80038460D46FEF7D4FF0F49FFF7D9F8FEF780
:101BB80033FCCDE902013046FEF7CAFF0A49FFF7B8
:101BC800CFF8FEF729FC22462B46CDE9000107494C
:101BD80005A833F0FDF805A8FFF787FB014605A81F
:101BE80034F075FB1FB0F0BD00007A449CEB040094
:101BF800002140F2E3400A4610B50A4C0A4B218006
:101C080001318142C3E90022C3E902221A611A752F
:101C180003F11803F4D1054B1A8005F0D1FC20809C
:101C280010BD00BF904D012068620020924D012038
:101C380030B50E4887B034F0A4FBFFF7D9FF0C4D40
:101C48000C4C4FF0FF3369464FF0FF32284631F015
:101C5800B3FEDDE901120098FFF796FF002200238A
:101C68006946204631F050FEEBE700BFADEB0400BB
:101C7800200B0020F00A002038B5134D0C462B78B5
:101C8800022B13D0032B16D0012B04D10F4834F0AC
:101C980078FB0A2363602B783BB10D4A13687BB944
:101CA8000123A373002313602B7038BD094834F057
:101CB80068FB1123EEE7084834F063FB1223E9E7D9
:101CC800012BEFD10023ECE7044E0120D2EB0400F6
:101CD800B0D70020D7EB0400DCEB040070B5564CFD
:101CE800564E204644F087FB34F0AEFA544D014678
:101CF800204644F08FFC3146204644F094FC2846A8
:101D080044F079FB002029F0B7F94E4C01462846EB
:101D180044F080FC28464C4D214644F084FC28467B
:101D280044F069FB0C2029F0A7F90146284644F045
:101D380071FC2846454D214644F075FC284644F080
:101D48005AFB052029F098F90146284644F062FC20
:101D580028463F4D214644F066FC284644F04BFB9C
:101D68000B2029F089F90146284644F053FC2846FF
:101D7800384D394944F057FC284644F03CFB0C20C8
:101D880029F07AF90146284644F044FC2146334CB0
:101D9800284644F048FC204644F02DFB34F054FA21
:101DA8000146204644F036FC20462D4C2D4944F08F
:101DB8003AFC204644F01FFB0E2029F05DF901464D
:101DC800204644F027FC2046274C284944F02BFCA9
:101DD800204644F010FB34F037FA0146204644F020
:101DE80019FC2046224C314644F01DFC204644F0A4
:101DF80002FB2046FF2144F093FB2046002144F0DB
:101E0800B1FB1C490B8923F4FF6323F0070343F458
:101E1800007343F002030B814CF601230B808023EF
:101E280034F015FA8B70C02388808B712046BDE88A
:101E3800704044F082BB00BF28D80020A8C7040027
:101E480020D8002018DD040018D8002010D8002061
:101E580008D80020D8D7002004CD0400F0D70020EF
:101E6800E8D70020BCD70400E0D7002060D20400E7
:101E780000D80020944D0120F0B504468DB04648A6
:101E88000E4644F0B8FA34F0E2F90146424844F00C
:101E98003EFB34F0D9F901463F4844F0BBFB002132
:101EA8003D4844F05FFB00213B4844F020FB002103
:101EB800394844F020FB0021374844F010FB00214A
:101EC800354844F010FB0022334920463DF028FFF6
:101ED80020462CF093FC054630492CF09BFC002250
:101EE8000221284607233CF0FEFC0A2268212846E6
:101EF8003CF0CBFCAEB120462DF0E2F803230546BA
:101F080000222749009302A8012332F061FF2846E6
:101F180002A92DF053FD002301211A4628463CF062
:101F2800E2FC20462DF0CCF81E4D1F4928602DF00C
:101F380045FD286800221D493DF0F2FE19230F22B5
:101F4800022128683CF0CFFC20462DF0B9F8002784
:101F5800174E184930602DF031FD00976FF00603D9
:101F68001122296830681AF0E3FB20462DF0A8F802
:101F7800114C124920602DF021FD3A4620680B498A
:101F88003DF0CEFE00976FF00403112231682068FF
:101F98001AF0CEFB0DB0F0BDB4D700207CAE040023
:101FA800E3EB0400C4D7002001EC0400F8D70020BC
:101FB800C0D7002005EC0400BCD7002009EC0400C1
:101FC80010B5044CFEF7C4FD2168FEF70DFD206036
:101FD80010BD00BFC8D70020F8B5144F14493868A1
:101FE800FEF7BCFF00B3134B134E1B78134D6BB1B8
:101FF8003068FEF7C7FF04B22868FEF7C3FF02B2D5
:102008000F4823460021006824F0E0FD00230D4A14
:102018000D493B600A600D4B0D4932600B600D495C
:102028002B600A600C4A1360F8BD00BFC8D70020B7
:102038000000FA4394090020D4D70020B002002001
:102048003CD800200050C3C7D0D700200050C34759
:10205800AC020020CCD70020A802002038B5114BD4
:1020680004461B78EBB1104D2968FEF763FF00B1F9
:102078002C600E4D20462968FEF77AFF00B12C60CF
:102088002046FEF77FFF0A4B02B21968094B186811
:1020980024F04CFF0120FFF793FFBDE83840FFF71D
:1020A8009BBF38BD94090020B0020020D4D700207F
:1020B80038D800203CD8002010B50B4C88B02368D5
:1020C8007BB1FEF797F90022084BFEF727FB024683
:1020D8000B466846064932F07BFE694620682DF0BB
:1020E8006DFC08B010BD00BF34D8002000408F4000
:1020F8000DEC040030B5124D04462B6889B07BB155
:1021080002461049684632F063FE0F4B694618686C
:102118002DF054FC4B2C05DD0C4928682DF04EFCA5
:1021280009B030BD322C286801DD0949F6E7192CC1
:1021380001DD0849F2E70A2CCCBF07490749EDE75A
:10214800C4D7002012EC0400C0D7002001EC040022
:1021580019EC04001DEC040021EC040025EC04003B
:102168002DE9F7430546002019F05CFD554E002186
:102178003060FFF781FE0022534930683DF0D0FD02
:10218800306824F017FD514C6422DC2120603CF0BB
:102198007CFB34F05CF823680146002218463EF0C8
:1021A80062F827684FF40032384600213EF03DF8C7
:1021B8004FF40032384600213EF041F84FF4FA71EE
:1021C800206842F041FF4FF47A730021404A2068AA
:1021D80024F0FCFC00222068114642F082FF012115
:1021E800206842F06EFF002309211A4620683CF05F
:1021F8007AFB30682CF064FF012D074646D135493B
:102208002DF0DCFB0A2300930E22002338462168B8
:102218001AF08EFA30682CF053FFDFF8BC902F4983
:10222800C9F800002DF0CAFB2D2300930E226FF091
:1022380018032168D9F800001AF07AFA30682CF0EF
:102248003FFF0027264980462DF0B8FB142300974E
:102258001A464046D9F800101AF06AFA012D21D121
:102268003846246828F008FF3A460146204624F0FC
:10227800DDFD1C4B186001230093642200230E210E
:10228800306817F0F9FA03B0BDE8F083022D01D1E8
:102298001549B5E7032D01D11449B1E7042DB1D192
:1022A8001349ADE7022D02D10C202468DAE7032D8B
:1022B80002D105202468D5E7042DDCD10B20246841
:1022C800D0E700BF30D8002000D800203CD800203C
:1022D80018FCFFFF29EC040034D800205BEC040054
:1022E8005EEC040038D8002035EC040041EC040012
:1022F8004EEC040010B50C4834F043F80B4B1C6846
:10230800204604F06FFD031E06DAE268616908489A
:10231800BDE8104034F035B8E1681A46BDE8104011
:10232800044834F02EB800BF93EC0400B402002037
:10233800A2EC0400C0EC04000122014B1A707047A3
:10234800044E01200222014B1A707047044E0120EE
:102358000322014B1A707047044E01204FF4767225
:102368000023014831F0E8BE000000204FF47672E7
:102378000023014831F0E0BE300000204FF47672AF
:102388000023014831F0D8BE6000002013B5074C87
:10239800206883683A21DB689847206883686A4622
:1023A8000D211B699847009802B010BD4CD9002038
:1023B8002DE9F04186B05B4846F0CFFF10B95A4886
:1023C80033F0DFFF59485A4B186046F0C6FF10B982
:1023D800584833F0D6FF5848584B186046F0BDFFB0
:1023E80010B9574833F0CDFF564C204646F0B5FF9C
:1023F800E0B14FF4D011544833F02CFF002815DB1E
:10240800204646F0AAFF88B14FF4D0114F4833F068
:1024180021FF00280ADB23691B68002BA3684FF003
:1024280000412046ACBF1B69DB689847484C4948C7
:1024380033F0A7FF206846F090FF00283AD0464EB8
:10244800464D4FF48031204633F004FF4FF480317D
:10245800304633F0FFFE4FF48031284633F0FAFE61
:10246800012322793E493F4803FA02F2C1E90102F9
:102478003279DFF8F4803D4803FA02F2C8E9010234
:102488002A793B4F93403B4A2068C7E9012333F040
:1024980018FF4146306833F014FF3946286833F096
:1024A80010FF204633F0F5FE304633F0F2FE2846A2
:1024B80033F0EFFEFFF71EFF2F4833F062FF2F487F
:1024C80031F0C0FB002002F011FD50B12C4B0593F8
:1024D8000223049300234FF482512A4804AA01F0EE
:1024E800ABFD4FF480620024274B2848DA61284A64
:1024F800C3E90244C3E905441A605C601C6133F017
:1025080040FF244E244DFFF741FF3060FFF7D4FD14
:1025180000202C70FFF7EEFD00214FF4C03032F0A0
:10252800D3F8F0E744A50400E1EC040058A5040042
:102538004CD90020FCEC040008A5040050D9002068
:1025480017ED040018A404006CAE040074AE040077
:10255800F00300202BED0400E8030020E003002036
:1025680040D900208523000034D9002075230000BD
:1025780028D900206523000039ED0400980B0020BD
:102588004CED0400DCA9040008D9002061ED04002A
:10259800054E012004D900200552012070B5002005
:1025A80088B006F0EBFC064628B10146124833F025
:1025B800E8FE08B070BD114D114803AC33F0E1FEE0
:1025C8000FCD0FC42B680F492360022233460096B3
:1025D80003A807F06FFB014650B10B4833F0D1FE5A
:1025E8000A4803230122002133F0CBFE0020E0E754
:1025F800074833F0C6FEF3E7BDF90400F0AA04006B
:10260800DDF9040088AE0400F4F904003CFA040083
:102618001AFA040070B517488AB033F0B2FE164EA5
:10262800164D002140F2071032F04EF83468A368C6
:102638003A212046DB689847A3686A463B21204632
:102648001B699847A3683C2120461B6902AA984742
:10265800009B0493029B05930023CDE9063308935E
:102668008DF8243000220023284604A931F04CF9C3
:10267800D7E700BF7AFA040068AE0400200B0020F8
:10268800014833F07EBE00BFA7FA0400014833F0CA
:1026980078BE00BFBDFA040010B50B4847F0FAFB3E
:1026A8000A490B4835F044FD0A4833F06AFE084CE5
:1026B800204635F049FD28B900214FF4004032F09A
:1026C80003F8F5E710BD00BF64D9002098AE0400F8
:1026D80054D90020D4FA04002DE9F04F91B00093AA
:1026E80002F004030293C2F3C203013384070546D0
:1026F8000E46DDF868900392059340F0BB81041DF7
:1027080030B1072909D86FF01B0011B0BDE8F08F70
:1027180001F00706341DC6F10806009B4FF00008BB
:102728004FF0040A591E4FF0FF3347460193C34642
:102738005346CDF810800DB1009A22600598002804
:1027480000F3E8809848009A824203D3974882426F
:10275800C0F0E080039AA4EB050E92074FEA9E00B2
:1027680000F103810F2F00F2B180002D00F00581E8
:1027780007F140020DEB020C019A0CF8200C0CF842
:10278800102C049801300490E7E07A285DD84B2893
:102798000ED8472859D829282DD8252852D054D8BA
:1027A80020287AD02338D0F1000B4BEB000B74E0D3
:1027B8004C382E2849D8DFE800F070484848484887
:1027C8004848484848484B4848484848484848596D
:1027D800484B4B595959704B6D487048184B18481D
:1027E80048827F4B48484B487F0000204FF0000B41
:1027F8004FF0040A38E001222A38C0B202FA00F089
:1028080010EA0E0F49D110F0625C2FD110EA020BCA
:1028180043D06046013C5444B4FBFAF40AFB04F488
:10282800002D61D0A3EB050CA4446645FFF46BAF03
:10283800002868D1042B47D159F8043B23600423AE
:1028480004342AE0019A013A01924FF0000B24E087
:1028580011F8010C6C2834D1002011F8023C834691
:102868006C2BC5D14FF0080A5346D3E709F1070985
:1028780029F00709073424F00704F9E802AB35B159
:1028880006982044B0423FF63EAFC4E900AB4FF093
:10289800000B08344FF0080A534611F8010F0028BE
:1028A80078D0BBF1000F7FF470AF2528F5D14FF039
:1028B800010B019B013301934FF0040AECE75846E2
:1028C80094E700208346A5E7082B02D06FF0150097
:1028D8001BE709F1070929F00709F9E80223C4E908
:1028E800002308230834D8E768B9042B02D109F17A
:1028F8000409A4E7082BE9D109F1070929F0070918
:1029080009F10809EDE7059A013A059259F8042BEF
:10291800009210E7039A900720D54FF0010CA4EB22
:10292800050E4FEA9E00BEF5007FCFD20F2FCDD8FF
:10293800F5B107F140020DEB020E019AC0B20EF894
:10294800200C0EF8102CBCF1000F3FF41AAF60F009
:102958007F000EF8200C08F101080137C5F10802C4
:102968004FF6DA7E0434069297E74FF0000CDAE768
:10297800BCF1000F01D00136EFE7029802360028BB
:10298800EBD10098CDE90631FEF7AFFCDDE9063161
:102998000644E2E7631BB3F5806F97D245B9A6F109
:1029A8000804E018B1E600BFA0A20400E0A70800F0
:1029B800029A9B0828602B709DF81030C2B1EB700A
:1029C80085F80280B8F1000F05D0002208A8C5F1EB
:1029D800010C97420ED14FF0000AC5F101030DF129
:1029E800200901930DF1300B574512D1601B8CE67D
:1029F8006B70E5E710F8013B190608D504EB0C0EDF
:102A0800764503F07F03FFF47EAE04F8013B013204
:102A1800DFE7B8F1000F03D099F90020002A17DB8F
:102A2800029BD3B11AF80B2004F8012B0022019B5A
:102A3800981820448642FFF466AE99F80000009981
:102A480004F8010B2046039247F048FA039A14440D
:102A58000AF1010A09F10109C6E799F8002055F8B9
:102A680022300093029B009845F82230FEF73DFC87
:102A7800421CDCE76FF00D0047E600BF2DE9F04F80
:102A880095B000AFBB61BB6F0446C3F3C0038A4671
:102A980090F802B07A623B6141B9457800780BEB57
:102AA80080002044554517D8A0EB040AE3787B61E1
:102AB800BBF1000F02D0BB6FD80716D47B6953BB9C
:102AC8007B6A1BB151462046BA6998475546284645
:102AD8005437BD46BDE8F08F461C3046FEF705FC6E
:102AE800013030440AF1010ADCE7237862683B626E
:102AF8009B00FB603B6AFA6104EB83097B6A002B4D
:102B080040F0FF80C8460026554609EB0B0AD04521
:102B180051D1D94413E0BB6F9907D1D52378994691
:102B28003B629B00FB60636804EB8909FB617B6A7D
:102B3800002B7AD15546BBF1000F4FD15E46BB6FD3
:102B480013F0050F0CBF4FF0020B4FF0010B7B6920
:102B580009EB430ABB6F03F002037B62D145B6D091
:102B680019F8021B19F8013C54F82380AB4B98451F
:102B780002D3AB4B984538D33B69002B42D0F86958
:102B880033F0D8FB00283DD0E8468AB06A46A54B0A
:102B98005361FB69C2E906314FF400731384A24BF9
:102BA80042F8103F00234FF41251A04801F044FAB4
:102BB800023DC546D2E718F8013B54F82300FEF75A
:102BC80094FBFB6F01303BB1D7F880309E423EBF8B
:102BD800FB6F23F816000136054498E7BB6F13F026
:102BE80004061CBF7E6AD944A9E73B6923B1F8698A
:102BF80033F0A0FB0028C7D1BB6FDA0705D4A5EBDB
:102C08000B05ABE77B6A002BA8D04046FEF76DFBAF
:102C1800FB6F43B1D7F880309E423FBFFA6F431C29
:102C280022F816300136054498E7BBF1000F6ED044
:102C3800BB6F13F004066DD0D846002607F140009C
:102C48005A46494647F04AF97B69D9445B007B609C
:102C58007B6909EB4303BB60BB6F03F002033B6076
:102C6800BB684B4558D1B96F6378B86F890748BFBF
:102C7800002106EB030258BF4FEA5801C507D2B23C
:102C880000F19A8010F0040F14BF40460020FB6149
:102C98006270A070E1702046BA69F9687B6A98474B
:102CA800051EFFF614AF3B6A41462370FB69BA69FB
:102CB80063707B6984F802B0E37007F140007B6AB7
:102CC8009847B0F10008C0F2A480FB68AAEB0B019A
:102CD800C91A7B684846C91ABA697B6A98470028A6
:102CE800C0F299804FF0000BA84408EB000507F1EB
:102CF800300AB34562D30021BA6908467B6A98470F
:102D0800E5E65E464FF0000807F1300098E75E46BA
:102D1800D84699E7B04697E719F8021B3F4B19F8D0
:102D2800015C54F82500984202D33D4B98421DD3CC
:102D38003B6923B1F86933F0FDFA002890D13B686C
:102D4800FBB908F1280307F1280208F1010003EB99
:102D5800020C07F1500308F1020853FA80F00CF84E
:102D6800101C5FFA88F800F8105C79E73B692BB112
:102D7800F86933F0DFFA00287FF472AFBB6FDB0726
:102D880009D506F1280307F12802711C9E1806F8D8
:102D9800205CCEB264E7BB6F58077FF561AF08F1DE
:102DA800280307F1280208F1010103EB020808F8DB
:102DB800105C5FFA81F853E7002068E71BF80A30D7
:102DC80054F8239087F82F30FB6FFBB133F81B8042
:102DD8000121BA697B6A07F12F00984700281ADB9E
:102DE8000544B8F1000F06D14846FEF77EFA00F117
:102DF80001081FFA88F841464846BA697B6A98472D
:102E0800002808DB05440BF1010B72E7D7F87C803A
:102E1800DEE745465BE6054659E600BFA0A204008A
:102E2800E0A70800FEFA0400040000019CA90400C1
:102E3800014B1860704700BFF803002080B50546B5
:102E48000E461746984631F073FC034647F01AFAC7
:102E58000446DFF81890424649F8003039463046B3
:102E6800A84754F8090003F035F900BF080000002E
:102E78002DE9F047058B04462807904611D402290E
:102E880005F0070540F0CD80204633F0F3FD78B11A
:102E98000138218B042811D8DFE800F0C3106D85B4
:102EA800950001290CBF45F0100545F02005258344
:102EB80088F31188BFF36F8FBDE8F08701F0070A28
:102EC800AA4500F0A6800027B9463E46A368002B15
:102ED80000F0BD8041F00801218388F31188BFF319
:102EE8006F8FA168002900F0BB800D68002900F0F1
:102EF800B780334652462046D1F80480C047002D9B
:102F080076D02B6829461D46F0E701F007035A1FC3
:102F1800012A1BD8002221F00701062B276889B255
:102F2800C4E9002209D13B4603E0628B0132628387
:102F38001B68002BF9D141F002012046218333F0B0
:102F480099FD00287BD041F0200177E0042B0AD1BD
:102F580021F0070189B22046218333F08BFD10B19F
:102F680041F020012183218B01F0070AAA4550D0A6
:102F78000027B946AAE7236921F0070141F00601B5
:102F8800062DD3F8009021832DD1B9F1000F40D040
:102F980041F00801218388F31188BFF36F8F204621
:102FA8003949C84729E021F00701236941F00401A4
:102FB80089B2042DD3F804902183E6D000274FF07E
:102FC800040A3E4682E721F00701236941F0050122
:102FD80089B2052DD3F808902183D6D000274FF069
:102FE800050A3E4672E700274FF0060A3E466DE79F
:102FF8002B4687E7B9F1000FD1D14FF02003EFF34B
:10300800118883F31288BFF36F8F238B23F0080393
:103018002383258BEA062ED525F01003238305F09C
:1030280007056669218B002EBFF66FAF002327685E
:10303800C4E9003321F0070141F001012183218B0C
:103048004FF0000901F0070AAA457FF43FAF002FAF
:103058009BD041F00801218388F31188BFF36F8F5B
:10306800002FC7D03D68394633465246204633F0D4
:103078002DFD2F46F4E7AB067FF51AAF25F02003A8
:10308800238305F00705FFE6016B030007B50DF183
:10309800070038F0CCFA114B98421CD14FF48062EB
:1030A8000F4B1049C3F8B8254FF40062C3F83C250C
:1030B8009DF8070038F0A7FA0B499DF8070038F08B
:1030C8009DFA01209DF80730984010F0DDFE0020A1
:1030D80003B05DF804FB6FF00B00F9E70000AD0BDF
:1030E80000A002502CA0025028A10250054B03EB6F
:1030F8008000D0F8003223F0E04343F04053C0F89A
:103108000032704700258450012208B50A4B0B494C
:10311800C3F8002502230020C1F8D036FFF7E6FFE8
:103128001046FFF7E3FFC1F80427C1F80429C1F8E6
:10313800002B002008BD00BF0010005000400050C8
:10314800052370B5144D154E2C780134B4FBF3F3F8
:1031580003EB8303E41A38F0C1F9114A137823B159
:1031680056F82430C01A072814D94FF05023D3F842
:10317800141141B10021C3F81411D3F814312C7083
:103188000CB9012313702C7838F0A8F946F82400FC
:10319800012070BD0020FCE70752012074D90020EF
:1031A8000652012048B1054B054A1B68B3FBF2F3F0
:1031B8005843044B43F00103184770478407002025
:1031C80040420F00D0AB040070B5049CC4F307263E
:1031D800304610F00DF9E5B20146284638F01FFADE
:1031E80000220120074BA40B04F0FC041A51A8404C
:1031F80010F050FE304610F0AFFA2846BDE8704097
:1032080010F0D2BE80A00250F0B583B000AF381DD8
:1032180010F0C4FE284B98424BD110F07FFA041EE0
:1032280013DA387910F0C0FE6D4688B06A46234B31
:10323800C2E90534032342F8103F00234FF4C2517A
:103248001F4800F0F9FEAD462FE040F607031D4D7C
:103258007C71AE68FB8074687B6814B96FF05704A2
:10326800E2E708212846184AA047041EDCDB336938
:10327800002BF3D00122082128469847041ED3DBEF
:1032880001203B79984010F0FFFD78793D79FE796F
:1032980038F00FF90146284638F0B5F90B4BB6005F
:1032A80045F000459D51002CBED120460C37BD4647
:1032B800F0BD6FF01204B7E70000AD0BB6FB0400D9
:1032C8009CAA040040A40400D932000080A1025046
:1032D8002DE9F341144683681B690BB10022984716
:1032E800C4F30726304610F08BF80546304638F010
:1032F800E0F84FF00008E7B20146384638F093F995
:10330800104B220E920043F80280304610F070F8FD
:103318000D4A4FEA943C0CF0FC0C47F0004342F88D
:103328000C300146384638F069F9084B05F132028D
:103338000093304643460194520038F0C3F802B077
:10334800BDE8F08180A1025080A00250D131000078
:1033580010F07CBC7FB570B9124B1348059302235B
:103368004FF4825104AA049333F011FF6FF0150053
:1033780007B05DF804FB836863B90C4B0A480593F2
:1033880002234FF4825104AA049333F000FF6FF034
:103398000400EDE71B681BB107B05DF804EB1847A4
:1033A8001846E5E7E7FB0400F4A90400F8FB04006D
:1033B8007FB570B9124B1348059302234FF482511D
:1033C80004AA049333F0E3FE6FF0150007B05DF82C
:1033D80004FB836863B90C4B0A48059302234FF436
:1033E800825104AA049333F0D2FE6FF00400EDE793
:1033F8005B681BB107B05DF804EB18471846E5E7B2
:10340800E7FB0400F4A90400F8FB040030B587B01A
:1034180008B101B16AB9134B1348059302234FF45D
:10342800825104AA049333F0B2FE6FF0150007B07E
:1034380030BD84680CB1E56865B90C4B0A48059342
:1034480002234FF4825104AA049333F0A0FE6FF0D4
:103458000400ECE741F8040BE36807B0BDE830402E
:10346800184700BF16FC0400F4A90400F8FB040088
:1034780010B5044686B068B9194B1A48059302235B
:103488004FF4825104AA049333F081FE6FF01500C3
:1034980006B010BD006860B9134B124805930223AB
:1034A8004FF4825104AA049333F071FE6FF00100C7
:1034B800EEE783680BB11B6963B90C4B09480593A8
:1034C80002234FF4825104AA049333F060FE6FF094
:1034D8000400DDE7616898470028D9D12060D7E764
:1034E80042FC0400F4A9040053FC0400F8FB0400A7
:1034F80030B51346044687B068B91A4B1A48059385
:1035080002234FF4825104AA049333F040FE6FF073
:10351800150007B030BD006860B9144B1248059318
:1035280002234FF4825104AA049333F030FE6FF063
:103538000100EEE782680AB1956865B90C4B0A4844
:10354800059302234FF4825104AA049333F01FFE1B
:103558006FF00400DDE70A46AC46616807B0BDE8D5
:103568003040604742FC0400F4A9040053FC040006
:10357800F8FB0400034A13680BB952681360002073
:10358800704700BFFC03002030B50C460E4985B0DB
:103598000291D0F8AC110546CDE9003100F1E00107
:1035A8004FF0FF3320462FF0FFFC50B9012384F879
:1035B8006430D5F8A83123B1204605B0BDE83040C5
:1035C800184705B030BD00BF8D72030038B50C46F2
:1035D8001146054633F058FE034638B928460449D3
:1035E80033F052FE03460020236038BD0120FBE77C
:1035F8006EFA04002DE9F04F0123814605694668FB
:1036080085B005F55D77D7E8EF2F002A03D1C7E825
:10361800E13F0029F7D10CBF1A46002240F0B180E3
:10362800B368B16A05F5E4781C1F104633F0B1FEA3
:1036380084425FD8013A00F09E80B2FA82F24FF0DD
:103648000044D44072682046073222F00302C5F8CD
:103658006022B16A33F09DFEC5F86402B36A404641
:103668006343033323F0030302EB4302230103EB19
:103678004403093323F0030303EBC403C5F85822BA
:103688001A440832C5F854227368C5F85C42C5F874
:1036980050323D4BC5E9A963316800F0BDF90446D5
:1036A80030BBD9F804A0D9F81090DAE9073409F545
:1036B800307B012B584608BF103C46F096F8002393
:1036C800DAF8240031494FF4806201EB802100933D
:1036D8005846234630F05CFC09F52C702C4946F01E
:1036E80046F8DAF8140083685C682CB96FF0570460
:1036F800002139E0013298E74B46264ADAF81810DB
:10370800A04704460028F3D1DAF8140083681B693F
:10371800002BEBD00122DAF818109847044600284D
:10372800E6D11D4B2846C5F8A8311C4BC5F8AC316D
:103738001B4B0393D5F810320293D5F80832CDE924
:103748000083D5F86832B26AD5F8701300F02CF906
:1037580004460028CCD105F1E0002FF0D3FC002866
:10376800C5F878030ADB0221384633F0C2FD20464B
:1037780005B0BDE8F08F6FF00B04B9E76FF01504E2
:10378800B6E76FF07704F2E7E372030068A0012060
:10379800C9720300BD720300AD37000071740300E5
:1037A8002B73030013B5044640B100230122CDE971
:1037B8000032074BD0E909122FF0AAFBA36E1B6851
:1037C80023B1E06E02B0BDE81040184702B010BD4A
:1037D8006EFA040013B504460846216901F55D71C7
:1037E800D1E8AF1F022910D193B1A0B10121CDE9D1
:1037F80000311346D0E909122FF08AFB074B984293
:1038080008BF6FF00B0002B010BD6FF00F00FAE7B1
:103818006FF04C00F7E76FF00100F4E72EF8FFFFB8
:103828002DE9F74388461546066906F55D73D3E822
:10383800AF3F022B5FD1136823B96FF0150003B0B7
:10384800BDE8F0831B78002BF7D0D6F87093B9F158
:10385800000F33D106F5D8774FF0FF324FF0FF3322
:10386800384630F003F930462A6801A9FFF7AEFE62
:10387800019C1CB9384633F03AFDDEE705F1080330
:10388800A3666B6984F86490E366E46360B13846C4
:1038980033F02DFD21463046236E2A68FFF774FE6B
:1038A8000020C8F80040CAE72022296804F1400037
:1038B80046F096FB384633F01AFDF1E730460F49DB
:1038C80033F0E2FC04460028B7D005F1080383660C
:1038D8006B69C063C366002380F8643020222968BE
:1038E800403046F07DFB22460121304600F03EF88C
:1038F8000028D5D0A1E76FF00F00A0E76EFA04000A
:103908002DE9F04F05460E4690460027D0F8B0A0A6
:1039180085B0AAF5AE7421463046FDF7D4FCE0B96F
:10392800114BA4F1400B0293DAF810303246CDE97E
:10393800008329464FF0FF335846AAF5CE792FF079
:1039480033FB60B97023012203FB079383F86420DB
:10395800DAF80C300BB158469847703417B105B0F7
:10396800BDE8F08F0127D6E7D37403001FB51446CE
:1039780090B18AB1012912D10A4B00F1E0010293FA
:10398800D0F8AC31403201934FF0FF33204600931A
:103998002FF00AFB04B010BD6FF01500FAE7002005
:1039A800F8E700BFD37403002DE9F04387B00E4653
:1039B800DDE90E811446DDE910251F4630B329B331
:1039C800DFF850C000F1E009002D08BF65469EB938
:1039D800CDE9034400F5CE742046059645F0A3FCD6
:1039E80003ABCDE900432A463B46414648462FF003
:1039F800AFFB07B0BDE8F083002241460E9248466F
:103A08002A4607B0BDE8F0432FF0CCBC6FF0150094
:103A1800EFE700BF09390000F0B50E46044689B04B
:103A280000286FD001230246C3630023D0F8981002
:103A3800364F403040F80C7C42F8301FCDE9013356
:103A48004FF0FF330093C36D38F0BDF9304A06AB31
:103A580092E8030083E80300184613F0CFFA0546FE
:103A6800D8B904F1340013F0ABFA0546A8B93946C1
:103A7800284805AA38F083F9054670B9059B9A6865
:103A880072B10C33D4F89400C4F8A03033F04EFD72
:103A9800C4F8D40030B96FF00B05284609B0F0BD62
:103AA8000346EFE7D4F8940033F040FDC4F8D8009B
:103AB8000028F0D0D4F88C30D4F8A010C4F8A8307E
:103AC8000423C4F8AC30C4F8C4300223A362124BF8
:103AD800B4F89420D4F8D470C4F8B810C4F8D0104E
:103AE800D4F89010236204F1A403A4F8B020C4F819
:103AF800A470C4F8C010A4F8C820C4F8BC00A6611B
:103B0800E362CAE76FF01505C7E700BF7DFC040054
:103B180004AB040087FC0400D4AE04002DE9F04790
:103B2800044607464FF00109DFF8508014B93846BB
:103B3800BDE8F08794FAA4F5B5FA85F509FA05F316
:103B48002E0108EB05156FEA030A24EA03042B7B10
:103B5800002BEBD058F806301B694BB94644736804
:103B680004222846196807EA0A0700F051FADDE737
:103B7800284698470028D9D1F0E700BFCCAA04000E
:103B880030B5002289B00F490F4846F00EF80022E0
:103B980000230024CDE906230E230C4DCDE9033480
:103BA8004FF440722846CDE90144094B0949009475
:103BB8002FF032FE0849284645F09CFC204609B003
:103BC80030BD00BFE53B0000B018002018140020ED
:103BD800BD3E000068A401208FFC0400014830F0BD
:103BE80031B800BF680B00202DE9F04780461F4818
:103BF8000F4633F0EDFC0646002830D00025284655
:103C0800BDE8F087237B73B12368DB680BB12046DE
:103C1800984723681B69D3B963680422204619684A
:103C280000F0F6F9013610344C45EBD3B8F1000F2B
:103C3800E5D0002DE2D02846FFF770FF0546002F9B
:103C4800F7D000214FF4A47030F03EFDF1E7204694
:103C580098470028E0D00AFA06F31D43E2E7054634
:103C68004FF0010A024CDFF80C90DDE798D90020EC
:103C7800CCAA0400DCAA0400014B53F820007047CA
:103C880014AF040008B5034608462BB1044A136074
:103C980000F074FC002008BD6FF01500FBE700BFC2
:103CA8002804002010B5044C237813B903482FF0DA
:103CB800C9FF0123237010BD08520120680B0020A2
:103CC80010B50446064833F083FC3CB1054BD3E8F5
:103CD800EF1F0139C3E8E21F002AF8D110BD00BF69
:103CE80090D9002094D9002000200146034BD3E846
:103CF800EF0FC3E8E21F002AF9D1704790D90020DE
:103D080070B5FFF7F1FF0546074C084EB44200D3E3
:103D180070BD63685B792BB123685B6813B1294672
:103D2800204698471034F1E7CCAA0400DCAA040026
:103D380010B5044C0449204633F0CEF8034B1C6000
:103D480010BD00BFC809002000AF040088D90020BA
:103D580008B50023074A4FF400411370064A074884
:103D68001360074A1360FFF78DFFBDE80840FFF7AF
:103D7800DFBF00BF0952012090D90020D57503008C
:103D880094D90020014600220023014833F0C5B829
:103D9800C8090020014833F05EB900BFC8090020F7
:103DA800024B0146186833F0A8B900BF88D9002033
:103DB800014833F0DEB900BFC809002070B5264BB2
:103DC8001878002847D0FFF7E5FF054670B1234B68
:103DD800D3E8EF1F0139C3E8E21F002AF8D1204CCD
:103DE800204EB4422DD32846FFF7DAFF1E4B1F4C56
:103DF8001B68002B19DD45F091FE4FF47A72A0FB89
:103E0800020302FB0131C30B43EA4143D4E900201A
:103E18009B1A40F2E9324FEAD13161EB000193423B
:103E280071F1000101D3FFF76BFFD4E9003213F5FC
:103E38007A7342F10002C4E90032BDE87040FFF72E
:103E4800B7BF63685B7923B12368294620461B689E
:103E580098471034C5E770BD0852012094D9002056
:103E6800CCAA0400DCAA040090D90020A8180020DD
:103E780070B50D4D297861B90120FFF7B5FE0B4CDF
:103E88000B4EB44206D3FFF799FF0028FBD101235C
:103E98002B7070BD63685B791BB1236820469B68F3
:103EA80098471034EDE700BF09520120CCAA04005E
:103EB800DCAA040000212DE9F0470846FFF794FE2C
:103EC800044658B340F267684FF0000946F0DAF943
:103ED8001B4B1C4A1B58136033B11B4B1B68092B27
:103EE80002DD1A482FF0AEFE0025194FDFF85CA05E
:103EF80044B12046FFF712FE044618B94FF0FF38C8
:103F08004FF0FF39FFF75AFF064628B9B5B94246C0
:103F18004B4650462FF0BCFE3546E9E74FF0FF38D8
:103F28004FF0FF39D2E72B689B691BB10022284666
:103F3800114698471035BD42F5D3E8E7054DFAE735
:103F4800080000008CD9002094D90020680B0020BC
:103F5800DCAA0400CCAA040013B5184833F038FBD7
:103F6800174B1B787BB14FF02003EFF3118483F3D9
:103F78001288BFF36F8FFFF721FF84F31188BFF317
:103F88006F8F02B010BD0F4B1B68002BF9D050B9D2
:103F9800002200230C48CDE900234FF400420023FF
:103FA80030F00AFEEDE70928EBD1074845F009FE95
:103FB800064802B0BDE810402FF044BE94D9002056
:103FC800095201208CD90020B0180020680B00206D
:103FD80010B5064B04461B6898472146A060044864
:103FE80033F019F8BDE81040FFF7B6BF28040020E9
:103FF800C8090020044A054B9B1AB1EBD30F34BF04
:1040080052F8310000207047D4A80400CCAA04005C
:10401800084B10B4C31A44681B1101332371436859
:104028009A7101224368196043685A7110BCFFF7FE
:1040380039BE00BFCCAA04002DE9F04F8FB0C1F300
:104048004A2804AF0D469146B8607B600C0DB8F164
:10405800000F63D000264FF0040B4FF00A0A07F157
:104068001403C7F80C80C7E907667E620193CDF890
:1040780008B0CDF800A007F11C0332464846F9689D
:10408800FEF7FCFCB0F5006F03461CD36C468AB003
:10409800D9F8041004AB26481A46C3E9050140F2D2
:1040A800FF71D9614FF400711984224B42F8103F17
:1040B8004FF4125133462048FFF7BEFFA5462C3770
:1040C800BD46BDE8F08FC0F30A0804F11700184494
:1040D80020F0070080083B60FFF754FE68F3532583
:1040E800044690B13B6800F11001C7E9083607F1B2
:1040F8001403F961CDE900A3CDF808B048460F4A8A
:10410800F96807F11C03FEF7B9FC68F353252A4642
:1041180020467B68B96833F08DFAD0E704F11700C0
:1041280020F007008008FFF72DFE0446EDE700BFEA
:10413800A4FC04000400000114AA04001176030082
:104148002DE9F04F87B00446DDE9105ADDE9126920
:104158000F4693469846A6B3102133465246002090
:10416800CDF80090CDF81490FEF7B6FA014605F1A7
:1041780017000844144B04F007040BF0070BE40085
:1041880020F0070003EA412344EA8B1480081C430B
:104198000391FFF7F7FD44EA0554054640B13EB1E7
:1041A800334652460399CDF800901030FEF794FA42
:1041B800434622463946284607B0BDE8F04F33F05B
:1041C80039BA3146D3E700BF00FE0F000EB403B57D
:1041D80003AB53F8042B01460448019302F006FB95
:1041E80002B05DF804EB03B0704700BFA37603008C
:1041F800CA0605D48B064CBF02490349FFF7E6BF40
:10420800704700BF6DFA0400B9A508002DE9F04F0A
:1042180089B09A46DDE914739DF84CB00593169B56
:1042280004460D46179E06920493BBF1000F00F05A
:10423800858006F00803079333F0E4F906F00209D5
:104248000246002849D020468549FFF7BFFF80462F
:10425800B9F1000F08D016F0440F40D12A46204685
:104268008049FFF7B3FF804406F0010353B17E4B4A
:10427800204653F82B207D4B7D49002A08BF1A465B
:10428800FFF7A4FF06F00803002B54D0794B204613
:1042980053F82B207849FFF799FF0546069B2BB169
:1042A8001A4620467549FFF791FF0544BAF1000FF9
:1042B80005D0524620467249FFF788FF0544454419
:1042C800002F49D1049B002B4FD1F30700F1C18087
:1042D80031462046FFF78CFFB5E08046B8E7694BCA
:1042E80018680028BFD0684B4FF47A791B684FF4E0
:1042F8006161B5FBF3F5B5FBF0F300FB135509FB62
:1043080005F5B3FBF1F2B5FBF0FE4FF03C0C01FBF9
:10431800123100FB1E55B1FBFCF309FB05F5B5FB9B
:10432800F0F50CFB131120460091CDE901E5574942
:10433800FFF74CFF97E706F00805AFE7BAF1010F62
:1043480006D1002F65D1049B002B7CD000250CE002
:10435800002FF8D04E485DE04E483B4622464E4975
:1043680031F0B7FF049B002B69D0DFF83081DFF80C
:104378003091049F3146102F204628BF10274FF058
:10438800000AFFF735FF554546DC059B49462046A0
:104398001A78FFF71BFF4FF0010A1AF0070F03D135
:1043A80041462046FFF712FF57453CD9059B494631
:1043B800204613F80A20FFF709FF0AF1010ABAF1AB
:1043C800100FEAD14FF0000A20463649FFF7FEFEEB
:1043D8005246059B20469A5C334B995C11F0970F27
:1043E80008BF2E223149FFF7F1FE0AF1010ABAF19E
:1043F800100F1DD01AF0070F03D141462046FFF7D2
:10440800E5FE57455246E4D841462046FFF7DEFE12
:10441800EBE720485D46A0E741462046FFF7D6FE79
:104428000AF1010AAFE720462149FFF7CFFEC4E7AA
:10443800059B3B440593049BDB1B049399D1BBF17B
:10444800000F7FF442AF204609B0BDE8F04F33F0CB
:1044580017B92046054A0649FFF7B8FE38E700BFF6
:10446800E8FC0400ECFC040024AF0400E3FC0400B6
:104478005E10050038AF040011FD040017FD0400AC
:104488001BFD0400A0D900209CD90020F5FC0400E5
:10449800D1760300A3760300F567000027380500EE
:1044A80020FD040026FD0400D4A6080028FD040011
:1044B800253805002DE9F0410F884B6805460C4664
:1044C80090468E6886B0C7F382175BB1144A9B1A70
:1044D80043F3CF01002920DB2078C0F3C200FFF7A7
:1044E80089FD0346214651F8102B6088C2F34A2201
:1044F800002A01EB020408BF00210022C0F30B10C0
:10450800CDE90408CDE90214284631460197009206
:10451800FFF77CFE06B0BDE8F0810023E2E700BFAC
:10452800D4A8040042F20F7373B58B4228BF0B4620
:1045380005680446052168460D4A30F01DFC06460C
:10454800636828460B225B680A4933F08CF8636875
:104558003246694628465B6833F085F863681B2253
:1045680028465B68044933F07EF802B070BD00BF8E
:10457800192E050047FD04002BFD0400002101232E
:10458800064A904206D8064A01B901231360054B32
:1045980018607047012140085B00F2E740420F00B5
:1045A8009CD90020A0D90020014B00201960704739
:1045B800B8D900200122024B02481A7033F060B8C3
:1045C8000B52012068AF04000148FFF7ABBF00BFE2
:1045D80068AF040010B5064B0C461868FFF74CFB93
:1045E8002146BDE8104003460F220248184700BF85
:1045F800B8D9002068AF0400F8B50D460446064F48
:104608004618B44201D12846F8BD14F8011BBB680E
:1046180001485B689847F4E72CA40400014B036049
:104628000020704778AF040070B5114B0D461C6828
:10463800DCB1104B196800238B4202DB6FF00100DC
:1046480070BD224612F8106B864202D01446013320
:10465800F2E7E06810B96FF01200F1E744F07DFE70
:104668000028F8D000202C60EAE76FF00C00E7E79C
:104678002C04002078AF0400F0B40C4B0C4E5F6A99
:104688000C4BB34203D36FF08500F0BC70475D68F4
:10469800BD4209D31C693CB195F802C00579AC4507
:1046A80002D12346F0BC18472433EAE7BCD90020DE
:1046B800C10D0020C10D00202DE9F04705460E462A
:1046C8001746124CDFF84880DFF84890444503D37A
:1046D8006FF08500BDE8F0876268D9F824309A4207
:1046E80012D3A36983B190782979884205D13A46D3
:1046F80031462846BDE8F04718475279012A03D1C8
:104708003A463146284698472434DFE7C10D002051
:10471800C10D0020BCD900202DE9F04105460E4608
:1047280017460A4CDFF82880444502D36FF085000D
:1047380009E063690BB92434F6E73A46314628465E
:1047480098470028F7D1BDE8F08100BFC10D0020CF
:10475800C10D00200022024B1A605A60704700BF4A
:1047680077DA002070B50B4B0B4CA34201D3002025
:1047780070BD0022196A1E7F0439D5B2AE4201D835
:104788002433F2E7013211F832508542F5D1012085
:10479800EEE700BFC10D0020C10D002008B5094893
:1047A8000378C3F341130A3350F823303BB100F1C7
:1047B800080200F110019847C043C00F08BD184611
:1047C800FCE700BFBCD9002073B5C4B263060D4630
:1047D8008DF8074007D02046FFF7C4FF78B10D4B8E
:1047E80093F8BA0058B120460A4E55B10BF0E4F9D7
:1047F800F3691BB108200DF107019847012002B0A9
:1048080070BD0BF013FAF369002BF7D009200DF1F6
:104818000701F2E7BCD9002080B500AF88B06A462E
:10482800074BC2E90530032342F8103F00234FF439
:10483800C2510448FFF700FC0020BD4680BD00BF00
:104848009AFD0400B4AA040004282DE9F74F044691
:104858000F46DFF8989015D001282FD1DFF8908007
:1048680098F8B93053B300F03BFE224D4D4522D2A3
:104878004FF0000A2A6A2B7F5FFA8AF6B34204D8FF
:104888002435F3E7FFF766FFE8E702EBC606307961
:10489800019235F0B9FF8346307932F065FFD8F8D8
:1048A800C430BBF1000F23EA0003019AC8F8C430F2
:1048B8000AF1010ADFDA002388F8B9300D4D4D45B9
:1048C80008D30B4B1B6A6BB13946204603B0BDE8D1
:1048D800F04F1847EB681BB13A46214628469847DF
:1048E8002435ECE703B0BDE8F08F00BFC10D002010
:1048F800BCD90020C10D0020F8B500AF054635F041
:1049080083FF10F1780F044613D090B16E4688B03B
:104918006A460E4BC2E90535032342F8103F0023CF
:104928004FF4C2510A48FFF787FBB5462046BD46FB
:10493800F8BD284632F018FF064A0024D2F8C430E1
:1049480023EA0003C2F8C430F0E700BFB5FD040055
:10495800B4AA0400BCD90020F0B583B0044680781E
:1049680000AF387023796279274D43EA02237B80B0
:10497800E37803F003033B7132F0F6FED5F8C43058
:10498800064618420CD0A478204600F08BFD20463D
:10499800FFF7B2FF44F0A8FD10B996202FF0AEFE45
:1049A80038460BF0D5F810F1780F0346387814D054
:1049B8009BB16C4688B06A46144BC2E905300323A4
:1049C80042F8103F124800234FF4C251FFF734FB5E
:1049D8000020A5460C37BD46F0BD0BF063F910F179
:1049E800780F08D038B16C4688B06A463B780949D8
:1049F800C2E90513E3E70120D5F8C43085F8B9000A
:104A08003343C5F8C430E5E7BCD90020D7FD04001E
:104A1800B4AA0400FBFD04002DE9F047A34E0446A8
:104A2800B3690F461546FBB9237803F01F03012B22
:104A380000F09D80022B00F0048133BB94F9000044
:104A48002A680028617834DA062912D008292BD080
:104A5800D9B901235170137096F8C3305B0043F045
:104A68000103137002232AE198470028DCD10020B3
:104A78000DE06288100A011F0129844605D907281C
:104A880003D8716AD2B20C781CB96FF01500BDE872
:104A9800F0874E78664503D19A4200F00B810133C6
:104AA8002144F0E70B780AE196F8BA301370012335
:104AB80005E101390829E8D801A353F821F000BF1E
:104AC800614B0000934A00006F4B0000934A0000BE
:104AD800ED4A0000934A0000934A0000934A000000
:104AE800F94A0000A0780AF0F7FF0028BFD0CCE709
:104AF8006388756A63BBFFF72DFE638886F8BA3052
:104B0800F369002BB3D0032069499847AFE76B7866
:104B1800042B10D0052B11D0022B04D16F79638898
:104B2800BB4208BF01202B781D442B78002BEED107
:104B38000028AAD0DFE795F80380F4E76388BB4232
:104B4800F1D1B8F1000FEED12846FFF705FFEAE7EB
:104B5800FF270020B846E8E76388012B95D100239A
:104B680086F8C33083E76388012B8ED1F8E796F87F
:104B7800BA30D5F800C0002B87D0756AA3882A46BA
:104B880094F804E0107800283FF47FAF51780229A8
:104B980004D192F80480F04500F293800244F1E7D2
:104BA8008CF800208CF80120396060E7154494E007
:104BB8000B2A7FF46AAF00274FF0FF08BA46C146B8
:104BC80006E06B78042B0FD0052B21D02B781D44E1
:104BD8002B78002BF5D1F36913B15146072098477C
:104BE800002F7FF444AF50E795F80280A38895F82A
:104BF80003909845EAD163889945E7D1B8F1070F42
:104C08001CD806EB0803AA46012783F8BB90DDE70A
:104C1800A3884345DAD1A3784B450AD0AF78384604
:104C280000F040FC3846FFF767FEB0FA80F77F09CE
:104C3800CCE72846FFF790FE0746C7E7AA460027B5
:104C4800C4E794F900206378002A18DA002B7FF46F
:104C58001CAF24792D6863060AD02046FFF782FD31
:104C680000283FF412AF96F8BA30002B3FF40DAF8E
:104C7800294620460AF0FAFF00236B70F2E6012B62
:104C880008D0032B7FF401AF6388002B7FF4FDAEBF
:104C9800012103E0618800297FF4F7AEA088FFF7BF
:104CA80093FD00287FF4E3AEEFE600BFBCD90020F7
:104CB80076DA0020022829607FF4F4AE4B883B6046
:104CC800D5E694F9000062780028BFF671AF002A93
:104CD8003FF466AF0A2A7FF4D8AE2A78002A3FF458
:104CE800D4AE697804297FF461AFA9788B427FF448
:104CF8005DAF072B8EBF00239B1993F8BB308CF850
:104D08000030D4E67FB5084B0593022304930023B3
:104D18004FF48251054804AAFFF78EF94FF0FF308F
:104D280007B05DF804FB00BF1CFE0400B4AA040031
:104D380013B5164C237DF3B9E26801AB8020A16856
:104D4800019232F020FD019AA3681344A360E3683E
:104D58009B1AE3606BB962B12369E2889A4208DD65
:104D680094F8C82093FBF2F102FB11330BB901232D
:104D7800237502B010BD002380201A4619462375FA
:104D880002B0BDE810400AF0B7BF00BFBCD9002090
:104D9800002370B58AB00D4606460193002868D1F5
:104DA800002940D108220B460DEB020135F045FDE4
:104DB800002804DA80200AF0FFFE0AB070BD324CE9
:104DC800029AC4E903552260039ABDF80E30626066
:104DD80004F13802A2609DF908202575002A15DB28
:104DE800802B0FD9294B0993022308934FF4825142
:104DF8002B46274808AAFFF71FF980200AF0DCFE97
:104E08002846D8E713B1C4E90333D6E7FFF7C6FC51
:104E18000028CFD0E28823699A42D4BFE260E360D9
:104E2800FFF786FFC9E7184C01ABD4E90212002A44
:104E380005DC024635F001FD0028BEDABAE735F098
:104E4800FCFC002804DA80200AF0B6FE3046B2E7FF
:104E5800019AA3681344A360E3689B1AE360002BDC
:104E6800ABD104F13803A360FFF798FC0028D7D131
:104E7800A0E78028A1D1044BDA68002AD0D11B7D95
:104E8800002BCDD199E700BFBCD9002041FE04001A
:104E9800B4AA0400054B064A58629A62054A0020E3
:104EA800DA62054A1A63054A9A617047BCD900203C
:104EB800214A00008146000021470000C146000049
:104EC80010B5094B93F8B84054B900F0F3F818B985
:104ED800BDE81040FFF716BFFFF7DCFF204610BD06
:104EE8006FF07700FBE700BFBCD900202DE9F04147
:104EF800464D04466F6A86B04FF0FF324FF0FF33DD
:104F080043482EF0B3FD95F8B860002E7BD1414898
:104F18002C62E8610BF064F80AF0ACFD041E15DBA6
:104F280000F002FB041E11DB7B78012B01D1FB7919
:104F38009BB9394B0593022304936FF015040023A2
:104F48004FF48251354804AAFFF776F830482EF01E
:104F580007FE204606B0BDE8F081684685F8C830EF
:104F6800ADF802308DF804608DF800600AF0F0FDAD
:104F7800041EEBDB802768468DF800700AF0E8FD18
:104F8800041EE3DB304626490BF016F8041EDDDB71
:104F9800384623490BF010F8041ED7DB214CDFF804
:104FA800888044451AD300200AF07CFE041ECDDB1D
:104FB800D5F8C430802043F00103C5F8C4300AF0A6
:104FC80071FE041EC2DBD5F8C430002443F48033DC
:104FD800C5F8C430012385F8B830B7E70026276A3A
:104FE800227FF3B29A4201D82434DAE707EBC302EE
:104FF80057F8331010790AF0DFFF01360028EFD098
:105008004FF0FF34A2E76FF077049FE7BCD9002088
:10501800DC0A0020514800005AFE0400B4AA04002B
:10502800994D0000C10D0020C10D002030B51F4B67
:105038008BB005AA03F1100514461868596808339F
:1050480003C4AB422246F7D11B78102223700021FB
:1050580001A844F06AFF12220021154844F065FFB8
:10506800102101A835F03DFF00281BDD0828B8BF36
:10507800082001AB09381A1800200D4912F8013F21
:105088000AAC04EB131403F00F0328336B4414F831
:10509800144C13F8143C013008280C704B7001F1C3
:1050A8000201EBD102480BB030BD00BF94FE0400F2
:1050B8000C5201202DE9F04F4FF0000B8BB08D4CB6
:1050C80000AF00264FF0011AB1463546B0462378A6
:1050D80043B9894B02349C42F3D186482C37BD46EC
:1050E800BDE8F08F6378052B1DD8DFE813F0B80012
:1050F80006000001B8001F005700402387F810B0D1
:105108007B8287F814B007F110000AF0F7FC40B171
:10511800082307F110007B820AF0F0FC08B1A7F819
:1051280012B07B8AE37123781C44D0E7E378002B24
:10513800F9D1A3784BB309F101095FFA89F9F2E7CC
:105148006B689C4223D024356C4B9D42F8D36D4646
:1051580088B06A466A4BC2E90534032342F8103F17
:1051680000234FF4C2516748FEF766FFAD46664B11
:105178007B6202233B62634800234FF4825107F1AC
:105188002002FEF759FF0020A8E7604DDCE7AB6876
:10519800002BD0D0494620469847CCE7002D5CD15B
:1051A8005B4B7B6202233B6200234FF482515548DC
:1051B80007F12002FEF740FFD9E72B6AA27803EB3C
:1051C800C103FB601B799A4205D001312B7F9942BC
:1051D800F3D3504BE5E70123E078DAB200F003009F
:1051E8003875207994F805C040EA0C20788294F943
:1051F8000200002826DA4FF0010C03F110000CFA27
:1052080000F010EA0A0F24D142F08000387407F148
:105218001000C7E90032B9600AF070FCD7E9012133
:105228003B68B0B9397CF86811F0800FA170017142
:105238004FF001011DBF1032D2B2914099404AEAA5
:10524800010A70E70120984010EA0A0F01D11046C0
:10525800DCE70133102BBFD1B7E70021B6E7032EF7
:105268002CD1FFF7E3FEF86088B1FCF73EF870B187
:105278001028FB6817D0284B7B6202233B6200236F
:105288004FF482511F4807F12002FEF7D5FE6FF058
:1052980002012378091BE21804EB5303D14214D509
:1052A8000136F6B23FE71846A31C00F1100250F889
:1052B800041B904243F8041BF9D1E8E7002EE6D11D
:1052C800B8F1000F08D1154B6BE702F801BC13F8D1
:1052D800010902F8020DE1E7A4EB080388F802309F
:1052E800C3F3072388F8033088F80490D8E7A0466A
:1052F80019E700BF580D0020C10D0020C10D002086
:10530800A5FE0400ACAA04008BFF0400C10D002018
:10531800C5FE040006FF040023FF04006EFF04001E
:10532800094B00211A4610B51C78844205D15C68E7
:105338001CB1482303FB012010BD0131042903F1EE
:105348004803F1D10020F7E788DA00202DE9F0437F
:1053580083B050F8303C0446103310F8345C00AF8A
:1053680011D1036950F8282C13F002064BD0F2B97A
:1053780013F0040304D11A461946284632F003FAFA
:10538800002344F8303C54F8303C10330BD054E937
:10539800098654F81C9C44F0A7F800286FD02146D1
:1053A8003D4844F011FA0C37BD46BDE8F08350F88B
:1053B8002C1C3B1D284632F0E6F998B16E4688B0A1
:1053C8006A46364BD561C2E90530042342F8103FDE
:1053D80000234FF401513248FEF72EFEB5466FF018
:1053E8001503CEE77A6854F82C3C134444F82C3C57
:1053F80054F8283C9B1A44F8283C54F8243C13449D
:1054080044F8243CBFE750F82C1C3B1D28460AF002
:1054180015FD88B1E84688B06A46204BD561C2E9D7
:105428000530042342F8103F4FF4015133461C481D
:10543800FEF702FEC546D2E77E6854F82C3C33449A
:1054480044F82C3C54F8283C9B1B44F8283C54F85E
:10545800243C334444F8243C002E91D028460AF0DA
:10546800C5FDB6FBF0F303FB1066002E88D154F897
:10547800283C002B84D028460AF046FD83E744F8F0
:10548800200CA4F118002EF0DDFB002E8BD04A462C
:1054980041462846B04786E798610020B9FF0400D6
:1054A800C4AA040010B54FF02003EFF3118483F36E
:1054B8001288BFF36F8FFFF733FF50B14368103383
:1054C80007D16FF08B0300F134014360034844F0C7
:1054D8007BF984F31188BFF36F8F10BD98610020AA
:1054E80070B504250E4C4FF02003EFF3118683F3BB
:1054F8001288BFF36F8F6368103307D16FF08B0387
:105508000848636004F1340144F05EF986F31188B9
:10551800BFF36F8F013D04F14804E4D170BD00BFB3
:1055280088DA00209861002070B50025094C0A4EE1
:105538003146204644F01BF90122A4F11800114617
:10554800013544F091F8042D04F14804F0D100200D
:1055580070BD00BFBCDA00205553000010B5084CE0
:1055680086B024788DF81740012402940DF11704B1
:105578000194BDF82040009434F05FFB06B010BDE4
:105588009C09002080B50C4A0C4B00AF88B001295B
:1055980008BF13466A460A49C2E905134FF4007367
:1055A8009383084B42F8103F00234FF4E651064816
:1055B800FEF742FDBD4680BDEF2505000B00050046
:1055C80014000500030000010CA904000122024B8D
:1055D80000201A70704700BF1E5201201FB5012419
:1055E8000294044C0194BDF81840009434F025FB53
:1055F80004B010BD1E52012080B50C4A0C4B00AF00
:1056080088B0012908BF13466A460A49C2E905134A
:105618004FF400739383084B42F8103F00234FF474
:10562800E6510648FEF708FDBD4680BDEF2505009A
:105638000B0005002D00050003000001D4A904009B
:105648000449431E0F3013F8012F8A5C83421A70F5
:10565800F9D170474F000500F0B50746264E8DB0CA
:1056680001AD0C460FCE0FC50FCE0FC596E807004B
:1056780085E807003846002F39D0002C39D0381F6C
:105688000246214610344B780D781B0443EA056323
:10569800CD7804312B4311F8025C8C4243EA052390
:1056A80042F8043FEFD10421144C8A07036916D14C
:1056B800C3F30742A55C1A0EA25C42EA0562C3F373
:1056C8000725655DDBB2E35C42EA054242EA032254
:1056D80021F0030330336B4453F82C3C534050F80B
:1056E800042F013153402C290361DED101200DB074
:1056F800F0BD2046FBE700BF0CAB04004F000500DF
:105708002DE9F04F002703689DB002934368DFF846
:10571800BCA103938368DDE902460493C36805933B
:105728000369DDE904BE0693436907938369DDE9EC
:10573800062C0893C36998460993089B0093CD5992
:105748000CAB2DBA5AF8049BDD514FEAF223A94459
:1057580083EAB213009D83EA72634B4425EA02058B
:1057680002EA0C0985EA09052B44434486EA0B053D
:105778004FEA743888EAB408254006EA0B0985EA36
:10578800090588EAB4580437A844402F03EB0E05EE
:105798004344DE46DDF8008040F088804FF0100A70
:1057A8004B490A9151460AF1010A0DF1700E0AF0AF
:1057B8000F070EEB870757F8407C01F00F094FEAF7
:1057C800B748019788EAF71801F10E0707F00F07A5
:1057D8000EEB870757F8407C09314FEAF74E8EEAFF
:1057E800774ECDF82CE001F00F010DF1700E0EEBA5
:1057F80081010EEB890959F840EC51F8401CBAF1C7
:10580800400F7144DDF804E088EADE08DDF82CE09A
:1058180041448EEA972E714405EA02084FEAF52EB4
:105828002CEA050787EA08078EEAB51EDDF8288006
:105838008EEA756E774458F804EF49F8401C7744AF
:105848000F4400994FEA733E394484EA0607CDF8BD
:1058580028808EEAB30E07EA030704EA06088EEAF0
:10586800B35E87EA080777440F4401EB0B0ECDF8C7
:1058780000C0B34622D10299394401600399194402
:10588800049B416023448360059B3344C360069BAB
:1058980073440361079B2B444361089B1344836152
:1058A800099B6344C3611DB0BDE8F08FB346CDF8D2
:1058B80000C0264694461C462A4640E7944626469B
:1058C8002A461C4675463B466CE700BF30B10400CB
:1058D8006CB1040010B50446C8B17022002131F043
:1058E80093FF0B4B0B4A0C49C4E900230B4B0C48A4
:1058F800C4E902130B4BC4E9040301200A4BA3615A
:1059080003F17453A3F52303A3F69243E36110BD97
:1059180085AE67BB67E6096A72F36E3C3AF54FA538
:105928007F520E518C68059BABD9831F2DE9F04738
:1059380081460C4600AF00294CD0D1E900126E46D2
:105948008AB0A3686D464FF0050AA8462548C5E900
:105958000723C5E9050148F810AF002342464FF474
:1059680021512148FEF768FBD4E90312B546636963
:10597800AD461E48C5E90723C5E90501C5F810A0CD
:10598800002342464FF421511748FEF755FBB54610
:1059980088B0E3696D464FF0030AA846144AC5E982
:1059A800052348F810AF002342464FF4C2510E4871
:1059B800FEF742FBB546A369AD460E4AC5F810A0EE
:1059C800C5E90523002342464FF4C2510648FEF7B5
:1059D80033FBB546214648462DF012FDBD46BDE8CD
:1059E800F08700BF4F01050064AA04007E0105008E
:1059F800AD010500BC01050030BFFFF7FDBF00BFCA
:105A0800124B134A2DE9F041D518013DB5FBF3F5CA
:105A1800DFF840805D43104B074608EB0304013C68
:105A2800B4FBF3F403FB04540E1B30460B4944F05B
:105A380055FA701942460021083E44F076FAC7F834
:105A4800846004F10800BDE8F08100BF0100000097
:105A5800000000000800000004000000F0AA040094
:105A6800044B99685869884203D003494FF0805223
:105A78000A607047584D012004ED00E02DE9F0411F
:105A880086B006460D4600AF0224444B4FF48251BF
:105A98007B6143483C6107F1100232F007FB414B40
:105AA8009B6ADB0678D5404B3D484FF48251C7E9E5
:105AB800044307F1100232F0F9FA1120394B9B6ABE
:105AC8001C070BD5394B36487B6102234FF48251B2
